{
  "contractName": "Marketplace",
  "abi": [
    {
      "anonymous": false,
      "inputs": [
        {
          "indexed": false,
          "internalType": "string",
          "name": "cid",
          "type": "string"
        },
        {
          "indexed": false,
          "internalType": "address",
          "name": "owner",
          "type": "address"
        },
        {
          "indexed": false,
          "internalType": "uint256",
          "name": "price",
          "type": "uint256"
        }
      ],
      "name": "productCreated",
      "type": "event"
    },
    {
      "anonymous": false,
      "inputs": [
        {
          "indexed": false,
          "internalType": "string",
          "name": "cid",
          "type": "string"
        },
        {
          "indexed": false,
          "internalType": "address",
          "name": "prevOwner",
          "type": "address"
        },
        {
          "indexed": false,
          "internalType": "address",
          "name": "newOwner",
          "type": "address"
        },
        {
          "indexed": false,
          "internalType": "uint256",
          "name": "amount",
          "type": "uint256"
        }
      ],
      "name": "productPurchased",
      "type": "event"
    },
    {
      "inputs": [
        {
          "internalType": "string",
          "name": "cid",
          "type": "string"
        },
        {
          "internalType": "address",
          "name": "owner",
          "type": "address"
        },
        {
          "internalType": "uint256",
          "name": "price",
          "type": "uint256"
        }
      ],
      "name": "createProduct",
      "outputs": [],
      "stateMutability": "nonpayable",
      "type": "function"
    },
    {
      "inputs": [
        {
          "internalType": "string",
          "name": "cid",
          "type": "string"
        },
        {
          "internalType": "address payable",
          "name": "owner",
          "type": "address"
        }
      ],
      "name": "purchaseProduct",
      "outputs": [],
      "stateMutability": "payable",
      "type": "function"
    }
  ],
  "bytecode": "0x608060405234801561001057600080fd5b506105f7806100206000396000f3fe6080604052600436106100295760003560e01c80630f0c782e1461002e578063a91108631461004a575b600080fd5b610048600480360381019061004391906102f3565b610073565b005b34801561005657600080fd5b50610071600480360381019061006c91906103c3565b6100fb565b005b8073ffffffffffffffffffffffffffffffffffffffff166108fc349081150290604051600060405180830381858888f193505050501580156100b9573d6000803e3d6000fd5b507ff44517348f49bf196b56de0b8b30c5e6cd9d0e36924b8fd8835903f9fa19fcdb828233346040516100ef9493929190610537565b60405180910390a15050565b7f37c864a47dcc70067a94389dbcd9e550f27a81504aefeb268727ac79290998f583838360405161012e93929190610583565b60405180910390a1505050565b6000604051905090565b600080fd5b600080fd5b600080fd5b600080fd5b6000601f19601f8301169050919050565b7f4e487b7100000000000000000000000000000000000000000000000000000000600052604160045260246000fd5b6101a282610159565b810181811067ffffffffffffffff821117156101c1576101c061016a565b5b80604052505050565b60006101d461013b565b90506101e08282610199565b919050565b600067ffffffffffffffff821115610200576101ff61016a565b5b61020982610159565b9050602081019050919050565b82818337600083830152505050565b6000610238610233846101e5565b6101ca565b90508281526020810184848401111561025457610253610154565b5b61025f848285610216565b509392505050565b600082601f83011261027c5761027b61014f565b5b813561028c848260208601610225565b91505092915050565b600073ffffffffffffffffffffffffffffffffffffffff82169050919050565b60006102c082610295565b9050919050565b6102d0816102b5565b81146102db57600080fd5b50565b6000813590506102ed816102c7565b92915050565b6000806040838503121561030a57610309610145565b5b600083013567ffffffffffffffff8111156103285761032761014a565b5b61033485828601610267565b9250506020610345858286016102de565b9150509250929050565b600061035a82610295565b9050919050565b61036a8161034f565b811461037557600080fd5b50565b60008135905061038781610361565b92915050565b6000819050919050565b6103a08161038d565b81146103ab57600080fd5b50565b6000813590506103bd81610397565b92915050565b6000806000606084860312156103dc576103db610145565b5b600084013567ffffffffffffffff8111156103fa576103f961014a565b5b61040686828701610267565b935050602061041786828701610378565b9250506040610428868287016103ae565b9150509250925092565b600081519050919050565b600082825260208201905092915050565b60005b8381101561046c578082015181840152602081019050610451565b8381111561047b576000848401525b50505050565b600061048c82610432565b610496818561043d565b93506104a681856020860161044e565b6104af81610159565b840191505092915050565b6000819050919050565b60006104df6104da6104d584610295565b6104ba565b610295565b9050919050565b60006104f1826104c4565b9050919050565b6000610503826104e6565b9050919050565b610513816104f8565b82525050565b6105228161034f565b82525050565b6105318161038d565b82525050565b600060808201905081810360008301526105518187610481565b9050610560602083018661050a565b61056d6040830185610519565b61057a6060830184610528565b95945050505050565b6000606082019050818103600083015261059d8186610481565b90506105ac6020830185610519565b6105b96040830184610528565b94935050505056fea264697066735822122095201762e5c937c1b3b01a407b30f4dace49841900ba7782c45c03234fd439cd64736f6c634300080d0033",
  "immutableReferences": {},
  "source": "// SPDX-License-Identifier: MIT\r\npragma solidity >= 0.5.0;\r\n\r\ncontract Marketplace {\r\n\r\n    event productCreated (\r\n        string cid,\r\n        address owner,\r\n        uint price\r\n    );\r\n\r\n    event productPurchased(\r\n        string cid, \r\n        address prevOwner,\r\n        address newOwner,\r\n        uint amount\r\n    );\r\n\r\n    function createProduct(string memory cid, address owner, uint price) public {\r\n        emit productCreated(cid, owner, price);\r\n    }\r\n\r\n    function purchaseProduct (string memory cid, address payable owner) public payable {\r\n        owner.transfer(msg.value);\r\n        emit productPurchased(cid, owner, msg.sender, msg.value);\r\n    }\r\n}",
  "sourcePath": "C:\\Users\\chrip\\Desktop\\marketplace\\truffle\\contracts\\Marketplace.sol",
  "compiler": {
    "name": "solc",
    "version": "0.8.13+commit.abaa5c0e.Emscripten.clang"
  },
  "schemaVersion": "3.4.6",
  "updatedAt": "2022-05-20T09:08:26.547Z",
  "devdoc": {
    "kind": "dev",
    "methods": {},
    "version": 1
  },
  "userdoc": {
    "kind": "user",
    "methods": {},
    "version": 1
  }
}