{
  "contractName": "Marketplace",
  "abi": [
    {
      "anonymous": false,
      "inputs": [
        {
          "indexed": false,
          "internalType": "string",
          "name": "cid",
          "type": "string"
        },
        {
          "indexed": false,
          "internalType": "address",
          "name": "owner",
          "type": "address"
        },
        {
          "indexed": false,
          "internalType": "uint256",
          "name": "price",
          "type": "uint256"
        }
      ],
      "name": "productCreated",
      "type": "event"
    },
    {
      "anonymous": false,
      "inputs": [
        {
          "indexed": false,
          "internalType": "string",
          "name": "cid",
          "type": "string"
        },
        {
          "indexed": false,
          "internalType": "address",
          "name": "prevOwner",
          "type": "address"
        },
        {
          "indexed": false,
          "internalType": "address",
          "name": "newOwner",
          "type": "address"
        },
        {
          "indexed": false,
          "internalType": "uint256",
          "name": "price",
          "type": "uint256"
        }
      ],
      "name": "productPurchased",
      "type": "event"
    },
    {
      "inputs": [
        {
          "internalType": "string",
          "name": "cid",
          "type": "string"
        },
        {
          "internalType": "uint256",
          "name": "price",
          "type": "uint256"
        }
      ],
      "name": "createProduct",
      "outputs": [],
      "stateMutability": "nonpayable",
      "type": "function"
    },
    {
      "inputs": [
        {
          "internalType": "string",
          "name": "cid",
          "type": "string"
        },
        {
          "internalType": "address payable",
          "name": "owner",
          "type": "address"
        }
      ],
      "name": "purchaseProduct",
      "outputs": [],
      "stateMutability": "payable",
      "type": "function",
      "payable": true
    }
  ],
  "bytecode": "0x608060405234801561001057600080fd5b5061063d806100206000396000f3fe6080604052600436106100295760003560e01c80630f0c782e1461002e578063e9300c6c1461004a575b600080fd5b61004860048036038101906100439190610318565b610073565b005b34801561005657600080fd5b50610071600480360381019061006c91906103aa565b61010e565b005b8073ffffffffffffffffffffffffffffffffffffffff166108fc349081150290604051600060405180830381858888f193505050501580156100b9573d6000803e3d6000fd5b507ff44517348f49bf196b56de0b8b30c5e6cd9d0e36924b8fd8835903f9fa19fcdb828233670de0b6b3a7640000346100f29190610435565b604051610102949392919061057d565b60405180910390a15050565b7f37c864a47dcc70067a94389dbcd9e550f27a81504aefeb268727ac79290998f58233670de0b6b3a7640000846101459190610435565b604051610154939291906105c9565b60405180910390a15050565b6000604051905090565b600080fd5b600080fd5b600080fd5b600080fd5b6000601f19601f8301169050919050565b7f4e487b7100000000000000000000000000000000000000000000000000000000600052604160045260246000fd5b6101c78261017e565b810181811067ffffffffffffffff821117156101e6576101e561018f565b5b80604052505050565b60006101f9610160565b905061020582826101be565b919050565b600067ffffffffffffffff8211156102255761022461018f565b5b61022e8261017e565b9050602081019050919050565b82818337600083830152505050565b600061025d6102588461020a565b6101ef565b90508281526020810184848401111561027957610278610179565b5b61028484828561023b565b509392505050565b600082601f8301126102a1576102a0610174565b5b81356102b184826020860161024a565b91505092915050565b600073ffffffffffffffffffffffffffffffffffffffff82169050919050565b60006102e5826102ba565b9050919050565b6102f5816102da565b811461030057600080fd5b50565b600081359050610312816102ec565b92915050565b6000806040838503121561032f5761032e61016a565b5b600083013567ffffffffffffffff81111561034d5761034c61016f565b5b6103598582860161028c565b925050602061036a85828601610303565b9150509250929050565b6000819050919050565b61038781610374565b811461039257600080fd5b50565b6000813590506103a48161037e565b92915050565b600080604083850312156103c1576103c061016a565b5b600083013567ffffffffffffffff8111156103df576103de61016f565b5b6103eb8582860161028c565b92505060206103fc85828601610395565b9150509250929050565b7f4e487b7100000000000000000000000000000000000000000000000000000000600052601260045260246000fd5b600061044082610374565b915061044b83610374565b92508261045b5761045a610406565b5b828204905092915050565b600081519050919050565b600082825260208201905092915050565b60005b838110156104a0578082015181840152602081019050610485565b838111156104af576000848401525b50505050565b60006104c082610466565b6104ca8185610471565b93506104da818560208601610482565b6104e38161017e565b840191505092915050565b6000819050919050565b600061051361050e610509846102ba565b6104ee565b6102ba565b9050919050565b6000610525826104f8565b9050919050565b60006105378261051a565b9050919050565b6105478161052c565b82525050565b6000610558826102ba565b9050919050565b6105688161054d565b82525050565b61057781610374565b82525050565b6000608082019050818103600083015261059781876104b5565b90506105a6602083018661053e565b6105b3604083018561055f565b6105c0606083018461056e565b95945050505050565b600060608201905081810360008301526105e381866104b5565b90506105f2602083018561055f565b6105ff604083018461056e565b94935050505056fea264697066735822122060e86665a97587547d1dd6fb898d92469ae6af59271edbf49e72720f628612c264736f6c634300080d0033",
  "immutableReferences": {},
  "source": "// SPDX-License-Identifier: MIT\npragma solidity >= 0.5.0;\n\ncontract Marketplace {\n\n    event productCreated (\n        string cid,\n        address owner,\n        uint price\n    );\n\n    event productPurchased(\n        string cid, \n        address prevOwner,\n        address newOwner,\n        uint price\n    );\n\n    function createProduct(string memory cid, uint price) public {\n        emit productCreated(cid, msg.sender, price / 1 ether);\n    }\n\n    function purchaseProduct(string memory cid, address payable owner) public payable {\n        owner.transfer(msg.value);\n        emit productPurchased(cid, owner, msg.sender, msg.value / 1 ether);\n    }\n}\n",
  "sourcePath": "/home/marketplace/marketplace/truffle/contracts/Marketplace.sol",
  "compiler": {
    "name": "solc",
    "version": "0.8.13+commit.abaa5c0e.Emscripten.clang"
  },
  "schemaVersion": "3.4.8",
  "updatedAt": "2022-08-25T12:06:13.153Z",
  "networkType": "ethereum",
  "devdoc": {
    "kind": "dev",
    "methods": {},
    "version": 1
  },
  "userdoc": {
    "kind": "user",
    "methods": {},
    "version": 1
  }
}