{
  "contractName": "Marketplace",
  "abi": [
    {
      "anonymous": false,
      "inputs": [
        {
          "indexed": false,
          "internalType": "bytes32",
          "name": "id",
          "type": "bytes32"
        },
        {
          "indexed": false,
          "internalType": "string",
          "name": "name",
          "type": "string"
        },
        {
          "indexed": false,
          "internalType": "uint256",
          "name": "price",
          "type": "uint256"
        },
        {
          "indexed": false,
          "internalType": "address payable",
          "name": "owner",
          "type": "address"
        },
        {
          "indexed": false,
          "internalType": "bool",
          "name": "purchased",
          "type": "bool"
        }
      ],
      "name": "productCreated",
      "type": "event"
    },
    {
      "anonymous": false,
      "inputs": [
        {
          "indexed": false,
          "internalType": "bytes32",
          "name": "id",
          "type": "bytes32"
        },
        {
          "indexed": false,
          "internalType": "string",
          "name": "name",
          "type": "string"
        },
        {
          "indexed": false,
          "internalType": "address payable",
          "name": "owner",
          "type": "address"
        },
        {
          "indexed": false,
          "internalType": "bool",
          "name": "purchased",
          "type": "bool"
        }
      ],
      "name": "productPurchased",
      "type": "event"
    },
    {
      "inputs": [
        {
          "internalType": "string",
          "name": "name",
          "type": "string"
        },
        {
          "internalType": "uint256",
          "name": "price",
          "type": "uint256"
        }
      ],
      "name": "createProduct",
      "outputs": [],
      "stateMutability": "nonpayable",
      "type": "function"
    }
  ],
  "bytecode": "0x608060405234801561001057600080fd5b506107df806100206000396000f3fe608060405234801561001057600080fd5b506004361061002b5760003560e01c8063e9300c6c14610030575b600080fd5b61004a60048036038101906100459190610465565b61004c565b005b6000825111610090576040517f08c379a00000000000000000000000000000000000000000000000000000000081526004016100879061051e565b60405180910390fd5b600081116100d3576040517f08c379a00000000000000000000000000000000000000000000000000000000081526004016100ca9061058a565b60405180910390fd5b600033426040516020016100e89291906105fa565b6040516020818303038152906040528051906020012090506040518060a001604052808281526020018481526020018381526020013373ffffffffffffffffffffffffffffffffffffffff16815260200160001515815250600080838152602001908152602001600020600082015181600001556020820151816001019080519060200190610178929190610232565b506040820151816002015560608201518160030160006101000a81548173ffffffffffffffffffffffffffffffffffffffff021916908373ffffffffffffffffffffffffffffffffffffffff16021790555060808201518160030160146101000a81548160ff0219169083151502179055509050507f18832bb9f2691ff663584a8fb5a7f41182040799efabea078eb8af666bb2b5eb8184843360006040516102259594939291906106ef565b60405180910390a1505050565b82805461023e90610778565b90600052602060002090601f01602090048101928261026057600085556102a7565b82601f1061027957805160ff19168380011785556102a7565b828001600101855582156102a7579182015b828111156102a657825182559160200191906001019061028b565b5b5090506102b491906102b8565b5090565b5b808211156102d15760008160009055506001016102b9565b5090565b6000604051905090565b600080fd5b600080fd5b600080fd5b600080fd5b6000601f19601f8301169050919050565b7f4e487b7100000000000000000000000000000000000000000000000000000000600052604160045260246000fd5b61033c826102f3565b810181811067ffffffffffffffff8211171561035b5761035a610304565b5b80604052505050565b600061036e6102d5565b905061037a8282610333565b919050565b600067ffffffffffffffff82111561039a57610399610304565b5b6103a3826102f3565b9050602081019050919050565b82818337600083830152505050565b60006103d26103cd8461037f565b610364565b9050828152602081018484840111156103ee576103ed6102ee565b5b6103f98482856103b0565b509392505050565b600082601f830112610416576104156102e9565b5b81356104268482602086016103bf565b91505092915050565b6000819050919050565b6104428161042f565b811461044d57600080fd5b50565b60008135905061045f81610439565b92915050565b6000806040838503121561047c5761047b6102df565b5b600083013567ffffffffffffffff81111561049a576104996102e4565b5b6104a685828601610401565b92505060206104b785828601610450565b9150509250929050565b600082825260208201905092915050565b7f4e6f6d6520696e73657269746f206e6f6e2076616c69646f0000000000000000600082015250565b60006105086018836104c1565b9150610513826104d2565b602082019050919050565b60006020820190508181036000830152610537816104fb565b9050919050565b7f5072657a7a6f20696e73657269746f206e6f6e2076616c69646f000000000000600082015250565b6000610574601a836104c1565b915061057f8261053e565b602082019050919050565b600060208201905081810360008301526105a381610567565b9050919050565b600073ffffffffffffffffffffffffffffffffffffffff82169050919050565b60006105d5826105aa565b9050919050565b6105e5816105ca565b82525050565b6105f48161042f565b82525050565b600060408201905061060f60008301856105dc565b61061c60208301846105eb565b9392505050565b6000819050919050565b61063681610623565b82525050565b600081519050919050565b60005b8381101561066557808201518184015260208101905061064a565b83811115610674576000848401525b50505050565b60006106858261063c565b61068f81856104c1565b935061069f818560208601610647565b6106a8816102f3565b840191505092915050565b60006106be826105aa565b9050919050565b6106ce816106b3565b82525050565b60008115159050919050565b6106e9816106d4565b82525050565b600060a082019050610704600083018861062d565b8181036020830152610716818761067a565b905061072560408301866105eb565b61073260608301856106c5565b61073f60808301846106e0565b9695505050505050565b7f4e487b7100000000000000000000000000000000000000000000000000000000600052602260045260246000fd5b6000600282049050600182168061079057607f821691505b6020821081036107a3576107a2610749565b5b5091905056fea26469706673582212204d1b753e894525ce7e2b95250f2076e87ea751b4b4d55ba1a63a9f1d18a0c0b564736f6c634300080d0033",
  "immutableReferences": {},
  "source": "// SPDX-License-Identifier: MIT\r\npragma solidity > 0.5.0;\r\n\r\ncontract Marketplace {\r\n\r\n    mapping (bytes32 => Product) products;\r\n\r\n    struct Product {\r\n        bytes32 id;\r\n        string name;\r\n        uint price;\r\n        address payable owner;\r\n        bool purchased;\r\n    }\r\n\r\n    event productCreated (\r\n        bytes32 id,\r\n        string name, \r\n        uint price,\r\n        address payable owner,\r\n        bool purchased\r\n    );\r\n\r\n    event productPurchased(\r\n        bytes32 id,\r\n        string name,\r\n        address payable owner,\r\n        bool purchased\r\n    );\r\n\r\n    function createProduct(string memory name, uint price) public {\r\n\r\n        require(bytes(name).length > 0, \"Nome inserito non valido\");\r\n        require(price > 0, \"Prezzo inserito non valido\");\r\n\r\n        bytes32 id = keccak256(abi.encode(msg.sender, block.timestamp));\r\n\r\n        products[id] = Product(id, name, price, payable(msg.sender), false);\r\n\r\n        emit productCreated(id, name, price, payable(msg.sender), false);\r\n    }\r\n\r\n}",
  "sourcePath": "C:\\Users\\chrip\\Desktop\\Marketplace\\marketplace\\truffle\\contracts\\Marketplace.sol",
  "compiler": {
    "name": "solc",
    "version": "0.8.13+commit.abaa5c0e.Emscripten.clang"
  },
  "schemaVersion": "3.4.6",
  "updatedAt": "2022-04-16T14:33:19.393Z",
  "networkType": "ethereum",
  "devdoc": {
    "kind": "dev",
    "methods": {},
    "version": 1
  },
  "userdoc": {
    "kind": "user",
    "methods": {},
    "version": 1
  }
}