{
  "contractName": "Marketplace",
  "abi": [
    {
      "anonymous": false,
      "inputs": [
        {
          "indexed": false,
          "internalType": "uint256",
          "name": "id",
          "type": "uint256"
        },
        {
          "indexed": false,
          "internalType": "string",
          "name": "name",
          "type": "string"
        },
        {
          "indexed": false,
          "internalType": "uint256",
          "name": "price",
          "type": "uint256"
        },
        {
          "indexed": false,
          "internalType": "address payable",
          "name": "owner",
          "type": "address"
        },
        {
          "indexed": false,
          "internalType": "bool",
          "name": "purchased",
          "type": "bool"
        }
      ],
      "name": "productCreated",
      "type": "event"
    },
    {
      "anonymous": false,
      "inputs": [
        {
          "indexed": false,
          "internalType": "uint256",
          "name": "id",
          "type": "uint256"
        },
        {
          "indexed": false,
          "internalType": "string",
          "name": "name",
          "type": "string"
        },
        {
          "indexed": false,
          "internalType": "address payable",
          "name": "owner",
          "type": "address"
        },
        {
          "indexed": false,
          "internalType": "bool",
          "name": "purchased",
          "type": "bool"
        }
      ],
      "name": "productPurchased",
      "type": "event"
    },
    {
      "inputs": [
        {
          "internalType": "string",
          "name": "name",
          "type": "string"
        },
        {
          "internalType": "uint256",
          "name": "price",
          "type": "uint256"
        }
      ],
      "name": "createProduct",
      "outputs": [],
      "stateMutability": "nonpayable",
      "type": "function"
    }
  ],
  "bytecode": "0x608060405234801561001057600080fd5b506105a4806100206000396000f3fe608060405234801561001057600080fd5b506004361061002b5760003560e01c8063e9300c6c14610030575b600080fd5b61004a600480360381019061004591906102a8565b61004c565b005b6000825111610090576040517f08c379a000000000000000000000000000000000000000000000000000000000815260040161008790610361565b60405180910390fd5b600081116100d3576040517f08c379a00000000000000000000000000000000000000000000000000000000081526004016100ca906103cd565b60405180910390fd5b7f04e45f428a2daa85046aad0dd8fb805dd0e4eb0fa51a63931a190c3ae9573b046000838333600060405161010c959493929190610514565b60405180910390a15050565b6000604051905090565b600080fd5b600080fd5b600080fd5b600080fd5b6000601f19601f8301169050919050565b7f4e487b7100000000000000000000000000000000000000000000000000000000600052604160045260246000fd5b61017f82610136565b810181811067ffffffffffffffff8211171561019e5761019d610147565b5b80604052505050565b60006101b1610118565b90506101bd8282610176565b919050565b600067ffffffffffffffff8211156101dd576101dc610147565b5b6101e682610136565b9050602081019050919050565b82818337600083830152505050565b6000610215610210846101c2565b6101a7565b90508281526020810184848401111561023157610230610131565b5b61023c8482856101f3565b509392505050565b600082601f8301126102595761025861012c565b5b8135610269848260208601610202565b91505092915050565b6000819050919050565b61028581610272565b811461029057600080fd5b50565b6000813590506102a28161027c565b92915050565b600080604083850312156102bf576102be610122565b5b600083013567ffffffffffffffff8111156102dd576102dc610127565b5b6102e985828601610244565b92505060206102fa85828601610293565b9150509250929050565b600082825260208201905092915050565b7f4e6f6d6520696e73657269746f206e6f6e2076616c69646f0000000000000000600082015250565b600061034b601883610304565b915061035682610315565b602082019050919050565b6000602082019050818103600083015261037a8161033e565b9050919050565b7f5072657a7a6f20696e73657269746f206e6f6e2076616c69646f000000000000600082015250565b60006103b7601a83610304565b91506103c282610381565b602082019050919050565b600060208201905081810360008301526103e6816103aa565b9050919050565b6000819050919050565b6000819050919050565b600061041c610417610412846103ed565b6103f7565b610272565b9050919050565b61042c81610401565b82525050565b600081519050919050565b60005b8381101561045b578082015181840152602081019050610440565b8381111561046a576000848401525b50505050565b600061047b82610432565b6104858185610304565b935061049581856020860161043d565b61049e81610136565b840191505092915050565b6104b281610272565b82525050565b600073ffffffffffffffffffffffffffffffffffffffff82169050919050565b60006104e3826104b8565b9050919050565b6104f3816104d8565b82525050565b60008115159050919050565b61050e816104f9565b82525050565b600060a0820190506105296000830188610423565b818103602083015261053b8187610470565b905061054a60408301866104a9565b61055760608301856104ea565b6105646080830184610505565b969550505050505056fea26469706673582212208cb37d6d67100d835214b2cfb21fb2f2c80d393dd607cc0696a64ffeb327d17364736f6c634300080d0033",
  "immutableReferences": {},
  "source": "// SPDX-License-Identifier: MIT\r\npragma solidity > 0.5.0;\r\n\r\ncontract Marketplace {\r\n\r\n    struct Product {\r\n        uint id;\r\n        string name;\r\n        uint price;\r\n        address payable owner;\r\n        bool purchased;\r\n    }\r\n\r\n    event productCreated (\r\n        uint id,\r\n        string name, \r\n        uint price,\r\n        address payable owner,\r\n        bool purchased\r\n    );\r\n\r\n    event productPurchased(\r\n        uint id,\r\n        string name,\r\n        address payable owner,\r\n        bool purchased\r\n    );\r\n\r\n    function createProduct(string memory name, uint price) public{\r\n\r\n        require(bytes(name).length > 0, \"Nome inserito non valido\");\r\n        require(price > 0, \"Prezzo inserito non valido\");\r\n\r\n        emit productCreated(0, name, price, payable(msg.sender), false);\r\n    }\r\n\r\n}",
  "sourcePath": "C:\\Users\\chrip\\Desktop\\Marketplace\\marketplace\\truffle\\contracts\\Marketplace.sol",
  "compiler": {
    "name": "solc",
    "version": "0.8.13+commit.abaa5c0e.Emscripten.clang"
  },
  "schemaVersion": "3.4.6",
  "updatedAt": "2022-04-13T12:04:03.492Z",
  "devdoc": {
    "kind": "dev",
    "methods": {},
    "version": 1
  },
  "userdoc": {
    "kind": "user",
    "methods": {},
    "version": 1
  }
}