{
  "contractName": "Marketplace",
  "abi": [
    {
      "inputs": [],
      "stateMutability": "nonpayable",
      "type": "constructor"
    },
    {
      "anonymous": false,
      "inputs": [
        {
          "indexed": false,
          "internalType": "string",
          "name": "cid",
          "type": "string"
        }
      ],
      "name": "productCreated",
      "type": "event"
    },
    {
      "anonymous": false,
      "inputs": [
        {
          "indexed": false,
          "internalType": "bytes32",
          "name": "id",
          "type": "bytes32"
        },
        {
          "indexed": false,
          "internalType": "string",
          "name": "name",
          "type": "string"
        },
        {
          "indexed": false,
          "internalType": "address payable",
          "name": "owner",
          "type": "address"
        },
        {
          "indexed": false,
          "internalType": "bool",
          "name": "purchased",
          "type": "bool"
        }
      ],
      "name": "productPurchased",
      "type": "event"
    },
    {
      "inputs": [],
      "name": "asset",
      "outputs": [
        {
          "internalType": "string",
          "name": "",
          "type": "string"
        }
      ],
      "stateMutability": "view",
      "type": "function",
      "constant": true
    },
    {
      "inputs": [
        {
          "internalType": "string",
          "name": "cid",
          "type": "string"
        },
        {
          "internalType": "uint256",
          "name": "price",
          "type": "uint256"
        }
      ],
      "name": "createProduct",
      "outputs": [],
      "stateMutability": "nonpayable",
      "type": "function"
    }
  ],
  "bytecode": "0x608060405234801561001057600080fd5b506040518060400160405280601281526020017f4d61726b6574706c616365202d207465737400000000000000000000000000008152506000908051906020019061005c929190610062565b50610165565b82805461006e90610134565b90600052602060002090601f01602090048101928261009057600085556100d7565b82601f106100a957805160ff19168380011785556100d7565b828001600101855582156100d7579182015b828111156100d65782518255916020019190600101906100bb565b5b5090506100e491906100e8565b5090565b5b808211156101015760008160009055506001016100e9565b5090565b7f4e487b7100000000000000000000000000000000000000000000000000000000600052602260045260246000fd5b6000600282049050600182168061014c57607f821691505b60208210810361015f5761015e610105565b5b50919050565b61066c806101746000396000f3fe608060405234801561001057600080fd5b50600436106100365760003560e01c806338d52e0f1461003b578063e9300c6c14610059575b600080fd5b610043610075565b604051610050919061031a565b60405180910390f35b610073600480360381019061006e91906104bb565b610103565b005b6000805461008290610546565b80601f01602080910402602001604051908101604052809291908181526020018280546100ae90610546565b80156100fb5780601f106100d0576101008083540402835291602001916100fb565b820191906000526020600020905b8154815290600101906020018083116100de57829003601f168201915b505050505081565b60008111610146576040517f08c379a000000000000000000000000000000000000000000000000000000000815260040161013d906105c3565b60405180910390fd5b60405180604001604052808381526020018281525060018360405161016b919061061f565b908152602001604051809103902060008201518160000190805190602001906101959291906101de565b50602082015181600101559050507f8440e585f1a3a1afff0ba3add6cb2ff41f5eec48464bc6953d18043d0e326819826040516101d2919061031a565b60405180910390a15050565b8280546101ea90610546565b90600052602060002090601f01602090048101928261020c5760008555610253565b82601f1061022557805160ff1916838001178555610253565b82800160010185558215610253579182015b82811115610252578251825591602001919060010190610237565b5b5090506102609190610264565b5090565b5b8082111561027d576000816000905550600101610265565b5090565b600081519050919050565b600082825260208201905092915050565b60005b838110156102bb5780820151818401526020810190506102a0565b838111156102ca576000848401525b50505050565b6000601f19601f8301169050919050565b60006102ec82610281565b6102f6818561028c565b935061030681856020860161029d565b61030f816102d0565b840191505092915050565b6000602082019050818103600083015261033481846102e1565b905092915050565b6000604051905090565b600080fd5b600080fd5b600080fd5b600080fd5b7f4e487b7100000000000000000000000000000000000000000000000000000000600052604160045260246000fd5b610392826102d0565b810181811067ffffffffffffffff821117156103b1576103b061035a565b5b80604052505050565b60006103c461033c565b90506103d08282610389565b919050565b600067ffffffffffffffff8211156103f0576103ef61035a565b5b6103f9826102d0565b9050602081019050919050565b82818337600083830152505050565b6000610428610423846103d5565b6103ba565b90508281526020810184848401111561044457610443610355565b5b61044f848285610406565b509392505050565b600082601f83011261046c5761046b610350565b5b813561047c848260208601610415565b91505092915050565b6000819050919050565b61049881610485565b81146104a357600080fd5b50565b6000813590506104b58161048f565b92915050565b600080604083850312156104d2576104d1610346565b5b600083013567ffffffffffffffff8111156104f0576104ef61034b565b5b6104fc85828601610457565b925050602061050d858286016104a6565b9150509250929050565b7f4e487b7100000000000000000000000000000000000000000000000000000000600052602260045260246000fd5b6000600282049050600182168061055e57607f821691505b60208210810361057157610570610517565b5b50919050565b7f4d7573742062652067726561746572207468616e207a65726f00000000000000600082015250565b60006105ad60198361028c565b91506105b882610577565b602082019050919050565b600060208201905081810360008301526105dc816105a0565b9050919050565b600081905092915050565b60006105f982610281565b61060381856105e3565b935061061381856020860161029d565b80840191505092915050565b600061062b82846105ee565b91508190509291505056fea2646970667358221220890d0f654a5b625ff0515b1433b1f999af5b6c3cc622662f6e47cf752b364ca764736f6c634300080d0033",
  "immutableReferences": {},
  "source": "// SPDX-License-Identifier: MIT\r\npragma solidity > 0.5.0;\r\n//TODO: compatibilit con ipfs\r\ncontract Marketplace {\r\n\r\n    string public asset;\r\n\r\n    constructor() public {\r\n        asset = \"Marketplace - test\";\r\n    }\r\n    \r\n    mapping (string => Product) products;\r\n\r\n    // struct Product {\r\n        // bytes32 id;\r\n        // string name;\r\n        // uint price;\r\n        // address payable owner;\r\n        // bool purchased;\r\n    //     string _hash;\r\n    // }\r\n\r\n    struct Product {\r\n        string cid;\r\n        uint price;\r\n    }\r\n\r\n    // event productCreated (\r\n    //     bytes32 id,\r\n    //     string name, \r\n    //     uint price,\r\n    //     address payable owner,\r\n    //     bool purchased\r\n    // );\r\n\r\n    event productCreated (\r\n        string cid\r\n    );\r\n\r\n    event productPurchased(\r\n        bytes32 id,\r\n        string name,\r\n        address payable owner,\r\n        bool purchased\r\n    );\r\n\r\n    //function createProduct(string memory name, uint price) public {\r\n    //    require(bytes(name).length > 0, \"Nome inserito non valido\");\r\n    //    require(price > 0, \"Prezzo inserito non valido\");\r\n    //    bytes32 id = keccak256(abi.encode(msg.sender, block.timestamp));\r\n    //    products[id] = Product(id, name, price, payable(msg.sender), false);\r\n    //    emit productCreated(id, name, price, payable(msg.sender), false);\r\n    //}\r\n\r\n    function createProduct(string memory cid, uint price) public {\r\n        require(price > 0, \"Must be greater than zero\");\r\n        products[cid] = Product(cid, price);\r\n        emit productCreated(cid);\r\n    }\r\n}",
  "sourcePath": "D:\\SSD\\Scuola\\3 anno\\2 semestre\\Tirocinio formativo\\Progetto\\marketplace\\truffle\\contracts\\Marketplace.sol",
  "compiler": {
    "name": "solc",
    "version": "0.8.13+commit.abaa5c0e.Emscripten.clang"
  },
  "schemaVersion": "3.4.6",
  "updatedAt": "2022-05-18T14:59:23.427Z",
  "networkType": "ethereum",
  "devdoc": {
    "kind": "dev",
    "methods": {},
    "version": 1
  },
  "userdoc": {
    "kind": "user",
    "methods": {},
    "version": 1
  }
}