{
  "contractName": "Marketplace",
  "abi": [
    {
      "anonymous": false,
      "inputs": [
        {
          "indexed": false,
          "internalType": "string",
          "name": "cid",
          "type": "string"
        },
        {
          "indexed": false,
          "internalType": "address",
          "name": "owner",
          "type": "address"
        }
      ],
      "name": "productCreated",
      "type": "event"
    },
    {
      "anonymous": false,
      "inputs": [
        {
          "indexed": false,
          "internalType": "string",
          "name": "cid",
          "type": "string"
        },
        {
          "indexed": false,
          "internalType": "address",
          "name": "prevOwner",
          "type": "address"
        },
        {
          "indexed": false,
          "internalType": "address",
          "name": "newOwner",
          "type": "address"
        },
        {
          "indexed": false,
          "internalType": "uint256",
          "name": "amount",
          "type": "uint256"
        }
      ],
      "name": "productPurchased",
      "type": "event"
    },
    {
      "inputs": [
        {
          "internalType": "string",
          "name": "cid",
          "type": "string"
        },
        {
          "internalType": "address",
          "name": "owner",
          "type": "address"
        }
      ],
      "name": "createProduct",
      "outputs": [],
      "stateMutability": "nonpayable",
      "type": "function"
    },
    {
      "inputs": [
        {
          "internalType": "string",
          "name": "cid",
          "type": "string"
        },
        {
          "internalType": "address payable",
          "name": "owner",
          "type": "address"
        }
      ],
      "name": "purchaseProduct",
      "outputs": [],
      "stateMutability": "payable",
      "type": "function",
      "payable": true
    }
  ],
  "bytecode": "0x608060405234801561001057600080fd5b506105a7806100206000396000f3fe6080604052600436106100295760003560e01c80630f0c782e1461002e57806365b3d5bf1461004a575b600080fd5b610048600480360381019061004391906102f0565b610073565b005b34801561005657600080fd5b50610071600480360381019061006c919061038a565b6100fb565b005b8073ffffffffffffffffffffffffffffffffffffffff166108fc349081150290604051600060405180830381858888f193505050501580156100b9573d6000803e3d6000fd5b507ff44517348f49bf196b56de0b8b30c5e6cd9d0e36924b8fd8835903f9fa19fcdb828233346040516100ef94939291906104f5565b60405180910390a15050565b7f2dee99df51b344759156da00d2bae1e9029d173c57eb41f60cdb64b54c3e2ca2828260405161012c929190610541565b60405180910390a15050565b6000604051905090565b600080fd5b600080fd5b600080fd5b600080fd5b6000601f19601f8301169050919050565b7f4e487b7100000000000000000000000000000000000000000000000000000000600052604160045260246000fd5b61019f82610156565b810181811067ffffffffffffffff821117156101be576101bd610167565b5b80604052505050565b60006101d1610138565b90506101dd8282610196565b919050565b600067ffffffffffffffff8211156101fd576101fc610167565b5b61020682610156565b9050602081019050919050565b82818337600083830152505050565b6000610235610230846101e2565b6101c7565b90508281526020810184848401111561025157610250610151565b5b61025c848285610213565b509392505050565b600082601f8301126102795761027861014c565b5b8135610289848260208601610222565b91505092915050565b600073ffffffffffffffffffffffffffffffffffffffff82169050919050565b60006102bd82610292565b9050919050565b6102cd816102b2565b81146102d857600080fd5b50565b6000813590506102ea816102c4565b92915050565b6000806040838503121561030757610306610142565b5b600083013567ffffffffffffffff81111561032557610324610147565b5b61033185828601610264565b9250506020610342858286016102db565b9150509250929050565b600061035782610292565b9050919050565b6103678161034c565b811461037257600080fd5b50565b6000813590506103848161035e565b92915050565b600080604083850312156103a1576103a0610142565b5b600083013567ffffffffffffffff8111156103bf576103be610147565b5b6103cb85828601610264565b92505060206103dc85828601610375565b9150509250929050565b600081519050919050565b600082825260208201905092915050565b60005b83811015610420578082015181840152602081019050610405565b8381111561042f576000848401525b50505050565b6000610440826103e6565b61044a81856103f1565b935061045a818560208601610402565b61046381610156565b840191505092915050565b6000819050919050565b600061049361048e61048984610292565b61046e565b610292565b9050919050565b60006104a582610478565b9050919050565b60006104b78261049a565b9050919050565b6104c7816104ac565b82525050565b6104d68161034c565b82525050565b6000819050919050565b6104ef816104dc565b82525050565b6000608082019050818103600083015261050f8187610435565b905061051e60208301866104be565b61052b60408301856104cd565b61053860608301846104e6565b95945050505050565b6000604082019050818103600083015261055b8185610435565b905061056a60208301846104cd565b939250505056fea26469706673582212204e00f3ed93f5066b455214137fa367b9c114d60a4a42f9e2714ce080384158c364736f6c634300080d0033",
  "immutableReferences": {},
  "source": "// SPDX-License-Identifier: MIT\r\npragma solidity >= 0.5.0;\r\n\r\ncontract Marketplace {\r\n\r\n    event productCreated (\r\n        string cid,\r\n        address owner\r\n    );\r\n\r\n    event productPurchased(\r\n        string cid, \r\n        address prevOwner,\r\n        address newOwner,\r\n        uint amount\r\n    );\r\n\r\n    function createProduct(string memory cid, address owner) public {\r\n        emit productCreated(cid, owner);\r\n    }\r\n\r\n    function purchaseProduct (string memory cid, address payable owner) public payable {\r\n        owner.transfer(msg.value);\r\n        emit productPurchased(cid, owner, msg.sender, msg.value);\r\n    }\r\n\r\n}",
  "sourcePath": "C:\\Users\\chrip\\Desktop\\marketplace\\truffle\\contracts\\Marketplace.sol",
  "compiler": {
    "name": "solc",
    "version": "0.8.13+commit.abaa5c0e.Emscripten.clang"
  },
  "schemaVersion": "3.4.6",
  "updatedAt": "2022-05-18T12:31:36.578Z",
  "networkType": "ethereum",
  "devdoc": {
    "kind": "dev",
    "methods": {},
    "version": 1
  },
  "userdoc": {
    "kind": "user",
    "methods": {},
    "version": 1
  }
}