{
  "contractName": "Marketplace",
  "abi": [
    {
      "anonymous": false,
      "inputs": [
        {
          "indexed": false,
          "internalType": "string",
          "name": "cid",
          "type": "string"
        },
        {
          "indexed": false,
          "internalType": "address",
          "name": "owner",
          "type": "address"
        },
        {
          "indexed": false,
          "internalType": "uint256",
          "name": "price",
          "type": "uint256"
        }
      ],
      "name": "productCreated",
      "type": "event"
    },
    {
      "anonymous": false,
      "inputs": [
        {
          "indexed": false,
          "internalType": "string",
          "name": "cid",
          "type": "string"
        },
        {
          "indexed": false,
          "internalType": "address",
          "name": "prevOwner",
          "type": "address"
        },
        {
          "indexed": false,
          "internalType": "address",
          "name": "newOwner",
          "type": "address"
        },
        {
          "indexed": false,
          "internalType": "uint256",
          "name": "price",
          "type": "uint256"
        }
      ],
      "name": "productPurchased",
      "type": "event"
    },
    {
      "inputs": [
        {
          "internalType": "string",
          "name": "cid",
          "type": "string"
        },
        {
          "internalType": "uint256",
          "name": "price",
          "type": "uint256"
        }
      ],
      "name": "createProduct",
      "outputs": [],
      "stateMutability": "nonpayable",
      "type": "function"
    },
    {
      "inputs": [
        {
          "internalType": "string",
          "name": "cid",
          "type": "string"
        },
        {
          "internalType": "address payable",
          "name": "owner",
          "type": "address"
        }
      ],
      "name": "purchaseProduct",
      "outputs": [],
      "stateMutability": "payable",
      "type": "function",
      "payable": true
    }
  ],
  "bytecode": "0x608060405234801561001057600080fd5b5061062a806100206000396000f3fe6080604052600436106100295760003560e01c80630f0c782e1461002e578063e9300c6c1461004a575b600080fd5b61004860048036038101906100439190610305565b610073565b005b34801561005657600080fd5b50610071600480360381019061006c9190610397565b61010e565b005b8073ffffffffffffffffffffffffffffffffffffffff166108fc349081150290604051600060405180830381858888f193505050501580156100b9573d6000803e3d6000fd5b507ff44517348f49bf196b56de0b8b30c5e6cd9d0e36924b8fd8835903f9fa19fcdb828233670de0b6b3a7640000346100f29190610422565b604051610102949392919061056a565b60405180910390a15050565b7f37c864a47dcc70067a94389dbcd9e550f27a81504aefeb268727ac79290998f5823383604051610141939291906105b6565b60405180910390a15050565b6000604051905090565b600080fd5b600080fd5b600080fd5b600080fd5b6000601f19601f8301169050919050565b7f4e487b7100000000000000000000000000000000000000000000000000000000600052604160045260246000fd5b6101b48261016b565b810181811067ffffffffffffffff821117156101d3576101d261017c565b5b80604052505050565b60006101e661014d565b90506101f282826101ab565b919050565b600067ffffffffffffffff8211156102125761021161017c565b5b61021b8261016b565b9050602081019050919050565b82818337600083830152505050565b600061024a610245846101f7565b6101dc565b90508281526020810184848401111561026657610265610166565b5b610271848285610228565b509392505050565b600082601f83011261028e5761028d610161565b5b813561029e848260208601610237565b91505092915050565b600073ffffffffffffffffffffffffffffffffffffffff82169050919050565b60006102d2826102a7565b9050919050565b6102e2816102c7565b81146102ed57600080fd5b50565b6000813590506102ff816102d9565b92915050565b6000806040838503121561031c5761031b610157565b5b600083013567ffffffffffffffff81111561033a5761033961015c565b5b61034685828601610279565b9250506020610357858286016102f0565b9150509250929050565b6000819050919050565b61037481610361565b811461037f57600080fd5b50565b6000813590506103918161036b565b92915050565b600080604083850312156103ae576103ad610157565b5b600083013567ffffffffffffffff8111156103cc576103cb61015c565b5b6103d885828601610279565b92505060206103e985828601610382565b9150509250929050565b7f4e487b7100000000000000000000000000000000000000000000000000000000600052601260045260246000fd5b600061042d82610361565b915061043883610361565b925082610448576104476103f3565b5b828204905092915050565b600081519050919050565b600082825260208201905092915050565b60005b8381101561048d578082015181840152602081019050610472565b8381111561049c576000848401525b50505050565b60006104ad82610453565b6104b7818561045e565b93506104c781856020860161046f565b6104d08161016b565b840191505092915050565b6000819050919050565b60006105006104fb6104f6846102a7565b6104db565b6102a7565b9050919050565b6000610512826104e5565b9050919050565b600061052482610507565b9050919050565b61053481610519565b82525050565b6000610545826102a7565b9050919050565b6105558161053a565b82525050565b61056481610361565b82525050565b6000608082019050818103600083015261058481876104a2565b9050610593602083018661052b565b6105a0604083018561054c565b6105ad606083018461055b565b95945050505050565b600060608201905081810360008301526105d081866104a2565b90506105df602083018561054c565b6105ec604083018461055b565b94935050505056fea26469706673582212203f8ae3f430429adad33f5d7ca3a9bb73368398b22bfd44354017aae20c471f6d64736f6c634300080d0033",
  "immutableReferences": {},
  "source": "// SPDX-License-Identifier: MIT\r\npragma solidity >= 0.5.0;\r\n\r\ncontract Marketplace {\r\n\r\n    event productCreated (\r\n        string cid,\r\n        address owner,\r\n        uint price\r\n    );\r\n\r\n    event productPurchased(\r\n        string cid, \r\n        address prevOwner,\r\n        address newOwner,\r\n        uint price\r\n    );\r\n\r\n    function createProduct(string memory cid, uint price) public {\r\n        emit productCreated(cid, msg.sender, price);\r\n    }\r\n\r\n    function purchaseProduct(string memory cid, address payable owner) public payable {\r\n        owner.transfer(msg.value);\r\n        emit productPurchased(cid, owner, msg.sender, msg.value / 1 ether);\r\n    }\r\n}",
  "sourcePath": "C:\\Users\\chrip\\Desktop\\marketplace\\truffle\\contracts\\Marketplace.sol",
  "compiler": {
    "name": "solc",
    "version": "0.8.13+commit.abaa5c0e.Emscripten.clang"
  },
  "schemaVersion": "3.4.6",
  "updatedAt": "2022-05-20T10:13:09.857Z",
  "networkType": "ethereum",
  "devdoc": {
    "kind": "dev",
    "methods": {},
    "version": 1
  },
  "userdoc": {
    "kind": "user",
    "methods": {},
    "version": 1
  }
}